S014000050726F6A656B74202D2053572E737265631A
S11300000C942A000C9447000C9447000C9447006D
S11300100C9447000C9447000C9447000C94470040
S11300200C9447000C9447000C9447000C94470030
S11300300C9447000C9447000C9447000C94470020
S11300400C9447000C9447000C9447000C94470010
S11300500C94470011241FBECFE5D8E0DEBFCDBF0E
S113006010E0A0E6B0E0EEEAF1E002C005900D92E7
S1130070A236B107D9F720E0A2E6B0E001C01D9294
S1130080A636B207E1F70E948E000C94D5000C94BA
S11300900000FB01009709F440C044EF51E064E024
S11300A020916400309165002115310571F4C899DF
S11300B014C0509365004093640020812F5F253065
S11300C010F420830AC0608308C0C89B06C0215076
S11300D031093093650020936400209162003091CF
S11300E063002115310551F4C99910C05093630080
S11300F04093620020812150208308C0C99B06C020
S1130100215031093093630020936200ADEEB0E0DA
S11301101197F1F70000019719F60895CF93DF9333
S11301201F92CDB7DEB7198287B387BB88B38360CC
S113013088BB89818230E9F028F4882341F081303A
S113014079F0F8CF8330F1F0843029F1F3CFBE0198
S11301506F5F7F4F80916000909161000E94490021
S1130160BE016F5F7F4F80916000909161000E949B
S11301704900BE016F5F7F4F8091600090916100E4
S11301800E944900BE016F5F7F4F80916000909193
S113019061000E944900BE016F5F7F4F8091600043
S11101A0909161000E944900C4CFF894FFCFF3
S10501AE320019
S9030000FC
