S014000050726F6A656B74202D2053572E737265631A
S11300000C942A000C9447000C9447000C9447006D
S11300100C9447000C9447000C9447000C94EF0197
S11300200C9447000C9447000C9447000C94470030
S11300300C9447000C9447000C9447000C94470020
S11300400C9447000C9447000C9447000C94470010
S11300500C94470011241FBECFE5D8E0DEBFCDBF0E
S113006010E0A0E6B0E0EAE7F4E002C005900D92EB
S1130070A039B107D9F720E0A0E9B0E001C01D9292
S1130080A739B207E1F70E943F010C943B020C949C
S1130090000080FF02C0DC9A01C0DC9881FF02C02E
S11300A0DD9A01C0DD9882FF02C0DE9A01C0DE98AD
S11300B083FF02C0DF9A0895DF980895CF93C82F75
S11300C0DB9A82958F700E944900DB98DB9A8C2F13
S11300D00E944900DB9880E18A95F1F700C0CF9136
S11300E00895DA980E945E000895DA9A0E945E00EC
S11300F0089581E00E94710083EF91E00197F1F788
S113010000C000000895CF93D49AD59AD69AD79A6E
S1130110D39AD29A85EA9EE00197F1F700C00000D5
S1130120DA98DB98C3E0DB9A83E00E944900DB980D
S113013081EE94E00197F1F700C00000C15099F7F7
S1130140DB9A82E00E944900DB9889EF90E00197F6
S1130150F1F700C0000088E20E94710088E00E946C
S1130160710081E00E94710083EF91E00197F1F743
S113017000C0000086E00E9471008CE00E947100C3
S1130180CF91089595B321E030E002C0220F331FD0
S11301908A95E2F72095292325BB089595B321E09C
S11301A030E002C0220F331F8A95E2F7292B25BBCA
S11301B00895CF93DF93C0E0D0E0CE010E94D90030
S11301C02196C830D105C9F7DF91CF910895CF9317
S11301D0DF93C0E0D0E0CE010E94E7002196C83052
S11301E0D105C9F7DF91CF910895009709F446C06E
S11301F044EF51E064E02091950030919600211580
S1130200310589F4C89917C050939600409395001E
S1130210209190002F5F253018F4209390000BC09C
S11302206093900008C0C89B06C0215031093093E8
S1130230960020939500209193003091940021150D
S1130240310561F4C99912C050939400409393000E
S11302502091900021502093900008C0C99B06C0B3
S1130260215031093093940020939300EDEEF0E097
S11302703197F1F70000019709F0BDCF089587B3D6
S113028087BB88B3836088BB84B38FEF84BB85B39B
S113029085BB8EB588608EBD80EA9FE09BBD8ABD1C
S11302A08EB585608EBD89B7806189BF0E94830049
S11302B0789480919000823009F451C028F4882306
S11302C051F0813011F1F7CF833009F46FC08430DD
S11302D009F477C0F0CFC0E0D0E0CE010E94C200A4
S11302E080916000909161000E94F5002196C830D1
S11302F0D10599F7CE010E94CE00809160009091C3
S113030061000E94F5002197A8F7D1E0C0E002C087
S1130310CF5FDF5F0C2F10E0C8010E94C200CC2326
S113032009F456C0C80101970E94CE008091600074
S1130330909161000E94F500D83050F3C8E0D0E0FD
S1130340CE010E94C200CE0101960E94CE0080918F
S11303506000909161000E94F500219788F70E9447
S1130360E70080916000909161000E94F5000E9476
S1130370D90080916000909161000E94F50016C040
S1130380C8010C2E02C0959587950A94E2F780FF68
S113039003C0CE010E94C2002196C830D10581F766
S11303A00F5F1F4F0F3F110519F405C000E010E067
S11303B0C0E0D0E0E5CF80916000909161000E94A0
S11303C0F50080916000909161000E94F50071CF6A
S11303D080916000909161000E94F50099CF1F9276
S11303E00F920FB60F9211242F933F934F935F9365
S11303F06F937F938F939F93AF93BF93CF93DF9329
S1130400EF93FF930E947900C0E0D0E0E091900068
S1130410F0E0EE0FFF1FEE59FF4F0190F081E02D49
S11304208091910090919200E80FF91FEC0FFD1F4D
S113043080810E9475002196C031D10539F78091E1
S11304409100909192000196909392008093910074
S1130450FF91EF91DF91CF91BF91AF919F918F91D8
S11304607F916F915F914F913F912F910F900FBEAC
S10D04700F901F901895F894FFCF29
S113047A64006C0073007A00810088004D6F646523
S113048A2031004D6F64652032004D6F646520335E
S113049A004D6F64652034004D6F6465203500009B
S9030000FC
