S014000050726F6A656B74202D2053572E737265631A
S11300000C942A000C9447000C9447000C9447006D
S11300100C9447000C9447000C9447000C94470040
S11300200C9447000C9447000C9447000C94470030
S11300300C9447000C9447000C9447000C94470020
S11300400C9447000C9447000C9447000C94470010
S11300500C94470011241FBECFE5D8E0DEBFCDBF0E
S113006010E0A0E6B0E0E2E5F7E002C005900D92F2
S1130070A239B107D9F720E0A2E9B0E001C01D928E
S1130080AC39B207E1F70E948E000C94A7030C94DC
S11300900000FB01009709F440C044EF51E064E024
S11300A020919400309195002115310571F4C8997F
S11300B014C0509395004093940020812F5F253005
S11300C010F420830AC0608308C0C89B06C0215076
S11300D0310930939500209394002091920030913F
S11300E093002115310551F4C99910C05093930020
S11300F04093920020812150208308C0C99B06C0F0
S1130100215031093093930020939200ADEEB0E07A
S11301101197F1F70000019719F60895CF93DF9333
S1130120CDB7DEB72B970FB6F894DEBF0FBECDBFA9
S11301308AE0E2E6F0E0DE01119601900D928A95E4
S1130140E1F71B8687B387BB88B3836088BB0CE663
S113015010E0BE01655F7F4F809160009091610067
S11301600E944900EB85F0E0EE0FFF1F81E090E074
S11301708C0F9D1FE80FF91F81818F9380818F93CE
S11301801F930F930E94C9000F900F900F900F9030
S1130190E0CFA0E0B0E0EFECF0E00C948003AE011F
S11301A04B5F5F4FFA0161917191AF0180919800AB
S11301B0909199000E94DF00E2E00C949C03ABE074
S11301C0B0E0E5EEF0E00C9470036C017B018A0171
S11301D0FC0117821682838181FFCCC1CE01019676
S11301E03C01F6019381F70193FD859193FF819181
S11301F07F01882309F4BAC1853239F493FD8591CE
S113020093FF81917F01853229F4B60190E00E9429
S1130210D602E7CF912C212C312CFFE1F315D8F035
S11302208B3279F038F4803279F08332A1F4232DC3
S113023020611DC08D3261F0803369F4232D21606B
S113024016C0832D8260382EE32DE4603E2E2AC032
S1130250F32DF8601DC037FC2DC020ED280F2A3087
S113026040F08E32B9F436FC81C1232D2064322E45
S113027019C036FE06C08AE0989E200D1124922EE5
S113028011C0EAE02E9E200D1124222EF32DF062DF
S11302903F2E08C08C3621F4832D8068382E02C08E
S11302A0883641F4F70193FD859193FF81917F0195
S11302B08111B3CF982F9F7D9554933028F40C5F10
S11302C01F4F9FE399830DC0833631F0833771F05C
S11302D0833509F059C021C0F801808189830E5FFC
S11302E01F4F88248394912C530113C02801F2E0FA
S11302F04F0E511CF801A080B18036FE03C0692D59
S113030070E002C06FEF7FEFC5010E94CB024C0189
S11303108201F32DFF773F2E16C0280122E0420E02
S1130320511CF801A080B18036FE03C0692D70E035
S113033002C06FEF7FEFC5010E94C0024C01F32D94
S1130340F0683F2E820133FC1BC0822D90E088169A
S11303509906B0F4B60180E290E00E94D6022A9495
S1130360F4CFF50137FC859137FE81915F01B60129
S113037090E00E94D60221102A9421E0821A91086A
S11303808114910471F7E8C0843611F0893641F57F
S1130390F80137FE07C060817181828193810C5F0F
S11303A01F4F08C060817181072E000C880B990BC8
S11303B00E5F1F4FF32DFF763F2E97FF09C09095D8
S11303C08095709561957F4F8F4F9F4FF0683F2EBA
S11303D02AE030E0A3010E941203882E861845C04B
S11303E0853731F4232D2F7EB22E2AE030E025C04C
S11303F0932D997FB92E8F36C1F018F4883579F092
S1130400B5C0803719F0883721F0B0C0E92FE0611A
S1130410BE2EB4FE0DC0FB2DF460BF2E09C034FE09
S11304200AC0292F2660B22E06C028E030E005C09D
S113043020E130E002C020E132E0F801B7FE07C05D
S113044060817181828193810C5F1F4F06C060813E
S1130450718180E090E00E5F1F4FA3010E941203A0
S1130460882E8618FB2DFF773F2E36FE0DC0232DD8
S11304702E7FA22E891458F434FE0BC032FC09C01E
S1130480832D8E7EA82E05C0B82CA32C03C0B82CB7
S113049001C0B92CA4FE0FC0FE01E80DF11D80813E
S11304A0803321F49A2D997EA92E09C0A2FE06C09C
S11304B0B394B39404C08A2D867809F0B394A3FC52
S11304C011C0A0FE06C0B21488F4280C922C9B180C
S11304D00EC0B21460F4B60180E290E00E94D6022D
S11304E0B394F7CFB21418F42B1802C0982C212C13
S11304F0A4FE10C0B60180E390E00E94D602A2FEE2
S113050017C0A1FC03C088E790E002C088E590E032
S1130510B6010CC08A2D867859F0A1FE02C08BE288
S113052001C080E2A7FC8DE2B60190E00E94D602F1
S1130530891438F4B60180E390E00E94D6029A94BC
S1130540F7CF8A94F301E80DF11D8081B60190E0A4
S11305500E94D6028110F5CF222009F442CEB601C2
S113056080E290E00E94D6022A94F6CFF6018681BA
S1130570978102C08FEF9FEF2B96E2E10C948C03DE
S1130580FC010590615070400110D8F7809590955A
S11305908E0F9F1F0895FC0161507040019001105F
S11305A0D8F7809590958E0F9F1F08950F931F93F2
S11305B0CF93DF93FB01238121FD03C08FEF9FEFD6
S11305C02CC022FF16C046815781248135814217F1
S11305D0530744F4A081B1819D012F5F3F4F3183C4
S11305E020838C93268137812F5F3F4F3783268367
S11305F014C08B01EC01FB010084F185E02D099509
S1130600892BE1F6D80116968D919C911797019646
S113061017969C938E931697CE01DF91CF911F91DD
S11306200F910895FA01AA27283051F1203181F160
S1130630E8946F936E7F6E5F7F4F8F4F9F4FAF4FE6
S1130640B1E03ED0B4E03CD0670F781F891F9A1FF9
S1130650A11D680F791F8A1F911DA11D6A0F711DAD
S1130660811D911DA11D20D009F468943F912AE0B9
S1130670269F11243019305D3193DEF6CF010895A1
S1130680462F4770405D4193B3E00FD0C9F7F6CFD2
S1130690462F4F70405D4A3318F0495D31FD40529A
S11306A0419302D0A9F7EACFB4E0A6959795879530
S11306B077956795BA95C9F700976105710508950F
S11306C09B01AC010A2E06945795479537952795BB
S11306D0BA95C9F7620F731F841F951FA01D089553
S11306E02F923F924F925F926F927F928F929F923E
S11306F0AF92BF92CF92DF92EF92FF920F931F932C
S1130700CF93DF93CDB7DEB7CA1BDB0B0FB6F894DC
S1130710DEBF0FBECDBF09942A88398848885F841C
S11307206E847D848C849B84AA84B984C884DF808D
S1130730EE80FD800C811B81AA81B981CE0FD11D71
S11307400FB6F894DEBF0FBECDBFED010895F89447
S1050750FFCFD5
S113075232006F0076007D0084008B002573004D0B
S11307626F64652031004D6F64652032004D6F6403
S1130772652033004D6F64652034004D6F6465203D
S105078235003C
S9030000FC
